:10E000000C943E700C9450700C9450700C945070A2
:10E010000C9450700C9450700C9450700C94507080
:10E020000C9450700C9450700C9450700C94507070
:10E030000C9450700C9450700C9450700C94507060
:10E040000C9450700C9450700C9450700C94507050
:10E050000C9450700C9450700C9450700C94507040
:10E060000C9450700C9450700C9450700C94507030
:10E070000C9450700C9450700C94507011241FBE6E
:10E08000CFEFD0E1DEBFCDBF12E0A0E0B1E001C034
:10E090001D92A930B107E1F70E941E710C94D7734D
:10E0A0000C940070982F92959F709A3018F0292F39
:10E0B000295A02C0292F205D8F708A3018F0982FBE
:10E0C000995A02C0982F905D8091C00085FFFCCFC7
:10E0D0002093C6008091C00085FFFCCF9093C600BE
:10E0E0000895982F8091C00085FFFCCF9093C600C3
:10E0F0000895EF92FF920F931F934398EE24FF240D
:10E10000870113C00894E11CF11C011D111D81E061
:10E11000E81689E0F8068DE3080780E0180728F084
:10E12000E0910702F091080209958091C00087FFF5
:10E13000E9CF439A8091C6001F910F91FF90EF9015
:10E1400008951F930E947970182F8091C00085FF59
:10E15000FCCF1093C6000E947970982F8091C00068
:10E1600085FFFCCF9093C600113610F0175503C001
:10E17000103308F01053913610F0975503C09033C8
:10E1800008F090531295107F892F810F1F910895E9
:10E19000282F90E007C08091C00087FFFCCF8091BE
:10E1A000C6009F5F9217B8F308951F93182F0E941F
:10E1B00079708032A9F48091C00085FFFCCF84E1A2
:10E1C0008093C6008091C00085FFFCCF1093C600ED
:10E1D0008091C00085FFFCCF80E18093C6000CC019
:10E1E000809105028F5F80930502853029F4E091CC
:10E1F0000702F091080209951F9108950E94797015
:10E20000803279F48091C00085FFFCCF84E1809357
:10E21000C6008091C00085FFFCCF80E18093C600DE
:10E220000895809105028F5F80930502853029F45F
:10E23000E0910702F0910802099508954F925F92CC
:10E240006F927F928F929F92AF92BF92CF92DF9206
:10E25000EF92FF920F931F93CF93DF930000A89547
:10E26000809160008861809360008EE08093600000
:10E2700084B714BE81FD07C010926000E0910702D0
:10E28000F0910802099589E18093C4001092C500BD
:10E2900088E18093C10086E08093C2005098589A2C
:10E2A0003B9A24E1E22E9EE1692E86E9582E0AE08F
:10E2B000402E10E1F12EB1E4DB2EA6E5CA2EF2E5E8
:10E2C000BF2EE0E2AE2E79E4972E63E5862E50E570
:10E2D000752E0E947970803311F4A8958BC081331C
:10E2E000D1F50E947970803209F0F0C18091C000B0
:10E2F00085FFFCCFE092C6008091C00085FFFCCF77
:10E30000D092C6008091C00085FFFCCFC092C600AD
:10E310008091C00085FFFCCFB092C6008091C00004
:10E3200085FFFCCFA092C6008091C00085FFFCCF86
:10E330009092C6008091C00085FFFCCF8092C600FD
:10E340008091C00085FFFCCF7092C6008091C00014
:10E3500085FFFCCFB2C1803441F40E9479708638C9
:10E3600008F448C00E94797045C0813499F40E9435
:10E370007970803811F482E0A6C1813811F481E00F
:10E38000A2C1823811F480E19EC1883909F09AC196
:10E3900083E099C1823459F490E08091C00087FFF6
:10E3A000FCCF8091C6009F5F9431B9F723C08534BC
:10E3B00059F490E08091C00087FFFCCF8091C600A7
:10E3C0009F5F9530B9F716C08035A1F0813531F4E3
:10E3D0000E94FE7088E080936000FFCF823551F08C
:10E3E000853559F40E947970809300010E947970FC
:10E3F000809301010E94FE706CCF863559F490E045
:10E400008091C00087FFFCCF8091C6009F5F943051
:10E41000B9F758C1843609F0C7C0A8950E94797031
:10E42000809303010E94797080930201809104011E
:10E430008E7F809304010E947970853429F4809145
:10E440000401816080930401E5E0F1E0119281E034
:10E45000E538F807D9F700E010E008C00E947970AD
:10E46000F801EB5FFE4F80830F5F1F4F8091020129
:10E47000909103010817190788F30E947970803280
:10E4800009F024C180910401209100013091010123
:10E4900080FF21C0609102017091030140E050E0D3
:10E4A00010C0F999FECFCA01820F931F92BD81BDA2
:10E4B000FA01EB5FFE4F808180BDFA9AF99A4F5FB7
:10E4C0005F4F4617570768F3260F371F3093010138
:10E4D000209300015EC0220F331F3093010120936F
:10E4E00000018091020180FF09C08091020190919A
:10E4F000030101969093030180930201F999FECFE5
:10E500001127E0910001F0910101C5E0D1E0809177
:10E51000020190910301103091F4009157000170B5
:10E520000130D9F303E000935700E89500915700BC
:10E5300001700130D9F301E100935700E89509908B
:10E5400019900091570001700130D9F301E0009358
:10E550005700E8951395103898F01127009157004F
:10E5600001700130D9F305E000935700E895009160
:10E57000570001700130D9F301E100935700E8958D
:10E580003296029709F0C7CF103011F00296E5CF0E
:10E5900011248091C00085FFFCCFE092C6008091DD
:10E5A000C00085FFFCCF89C0843709F064C0A895FE
:10E5B0000E947970809303010E9479708093020118
:10E5C0000E94797090910401853421F491609093B8
:10E5D00004010DC09E7F90930401809100019091F1
:10E5E0000101880F991F90930101809300010E94FF
:10E5F0007970803209F06DCE8091C00085FFFCCF2C
:10E60000E092C600609102017091030180910401C3
:10E61000B82FB170A82FA270209100013091010194
:10E62000F90140E050E019C0BB2359F0F999FECF41
:10E63000F2BDE1BDF89A90B58091C00085FFFCCF96
:10E6400007C0AA2339F494918091C00085FFFCCFC4
:10E650009093C6004F5F5F4F31964617570720F3E0
:10E66000260F371F30930101209300018091C000D5
:10E6700085FFFCCF22C0853719F50E947970803262
:10E6800029F58091C00085FFFCCFE092C600809103
:10E69000C00085FFFCCF6092C6008091C00085FF5E
:10E6A000FCCF5092C6008091C00085FFFCCF409205
:10E6B000C6008091C00085FFFCCFF092C60009CE55
:10E6C000863721F480E00E94D57003CE8091050248
:10E6D0008F5F80930502853009F0FBCDE091070242
:10E6E000F09108020995F5CDDF93CF9300D000D0CB
:10E6F000CDB7DEB7382F882309F431E020E035C0EC
:10E70000439A19821A821B821C820BC089819A81CA
:10E71000AB81BC810196A11DB11D89839A83AB8316
:10E72000BC8389819A81AB81BC8180589E43A04083
:10E73000B04060F3439819821A821B821C820BC07E
:10E7400089819A81AB81BC810196A11DB11D89830C
:10E750009A83AB83BC8389819A81AB81BC818050D1
:10E760009A4FA040B04060F32F5F231749F61982FB
:10E770001A821B821C820BC089819A81AB81BC8169
:10E780000196A11DB11D89839A83AB83BC838981C6
:10E790009A81AB81BC8180509147A240B04060F328
:10E7A0000F900F900F900F90CF91DF910895F894F4
:02E7B000FFCF99
:040000030000E00019
:00000001FF
